{
  "_format": "hh-sol-artifact-1",
  "contractName": "CeloToken",
  "sourceName": "contracts/CeloToken.sol",
  "abi": [
    {
      "inputs": [
        {
          "internalType": "string",
          "name": "_name",
          "type": "string"
        },
        {
          "internalType": "string",
          "name": "_symbol",
          "type": "string"
        }
      ],
      "stateMutability": "nonpayable",
      "type": "constructor"
    },
    {
      "anonymous": false,
      "inputs": [
        {
          "indexed": true,
          "internalType": "address",
          "name": "owner",
          "type": "address"
        },
        {
          "indexed": true,
          "internalType": "address",
          "name": "spender",
          "type": "address"
        },
        {
          "indexed": false,
          "internalType": "uint256",
          "name": "amount",
          "type": "uint256"
        }
      ],
      "name": "Approval",
      "type": "event"
    },
    {
      "anonymous": false,
      "inputs": [
        {
          "indexed": true,
          "internalType": "address",
          "name": "sender",
          "type": "address"
        },
        {
          "indexed": true,
          "internalType": "address",
          "name": "reciever",
          "type": "address"
        },
        {
          "indexed": false,
          "internalType": "uint256",
          "name": "amount",
          "type": "uint256"
        }
      ],
      "name": "Transfer",
      "type": "event"
    },
    {
      "inputs": [
        {
          "internalType": "address",
          "name": "_owner",
          "type": "address"
        },
        {
          "internalType": "address",
          "name": "_delegate",
          "type": "address"
        }
      ],
      "name": "allowance",
      "outputs": [
        {
          "internalType": "uint256",
          "name": "",
          "type": "uint256"
        }
      ],
      "stateMutability": "view",
      "type": "function"
    },
    {
      "inputs": [
        {
          "internalType": "address",
          "name": "_delegate",
          "type": "address"
        },
        {
          "internalType": "uint256",
          "name": "_amountOfToken",
          "type": "uint256"
        }
      ],
      "name": "approve",
      "outputs": [],
      "stateMutability": "nonpayable",
      "type": "function"
    },
    {
      "inputs": [
        {
          "internalType": "address",
          "name": "_address",
          "type": "address"
        }
      ],
      "name": "balanceOf",
      "outputs": [
        {
          "internalType": "uint256",
          "name": "",
          "type": "uint256"
        }
      ],
      "stateMutability": "view",
      "type": "function"
    },
    {
      "inputs": [],
      "name": "decimal",
      "outputs": [
        {
          "internalType": "uint8",
          "name": "",
          "type": "uint8"
        }
      ],
      "stateMutability": "pure",
      "type": "function"
    },
    {
      "inputs": [],
      "name": "getSymbol",
      "outputs": [
        {
          "internalType": "string",
          "name": "",
          "type": "string"
        }
      ],
      "stateMutability": "view",
      "type": "function"
    },
    {
      "inputs": [],
      "name": "getTokenName",
      "outputs": [
        {
          "internalType": "string",
          "name": "",
          "type": "string"
        }
      ],
      "stateMutability": "view",
      "type": "function"
    },
    {
      "inputs": [],
      "name": "getTotalSupply",
      "outputs": [
        {
          "internalType": "uint256",
          "name": "",
          "type": "uint256"
        }
      ],
      "stateMutability": "view",
      "type": "function"
    },
    {
      "inputs": [
        {
          "internalType": "address",
          "name": "_reciever",
          "type": "address"
        },
        {
          "internalType": "uint256",
          "name": "_amountOfToken",
          "type": "uint256"
        }
      ],
      "name": "transfer",
      "outputs": [],
      "stateMutability": "nonpayable",
      "type": "function"
    },
    {
      "inputs": [
        {
          "internalType": "address",
          "name": "_owner",
          "type": "address"
        },
        {
          "internalType": "address",
          "name": "_buyer",
          "type": "address"
        },
        {
          "internalType": "uint256",
          "name": "_amountOfToken",
          "type": "uint256"
        }
      ],
      "name": "transferFrom",
      "outputs": [],
      "stateMutability": "nonpayable",
      "type": "function"
    }
  ],
  "bytecode": "0x608060405234801561001057600080fd5b5060405161183538038061183583398181016040528101906100329190610369565b81600090816100419190610602565b5080600190816100519190610602565b5033600360006101000a81548173ffffffffffffffffffffffffffffffffffffffff021916908373ffffffffffffffffffffffffffffffffffffffff1602179055506100c8620f4240600360009054906101000a900473ffffffffffffffffffffffffffffffffffffffff166100cf60201b60201c565b50506107a3565b6000670de0b6b3a7640000836100e59190610703565b905080600460008473ffffffffffffffffffffffffffffffffffffffff1673ffffffffffffffffffffffffffffffffffffffff168152602001908152602001600020546101329190610745565b600460008473ffffffffffffffffffffffffffffffffffffffff1673ffffffffffffffffffffffffffffffffffffffff16815260200190815260200160002081905550806002546101839190610745565b6002819055508173ffffffffffffffffffffffffffffffffffffffff16600073ffffffffffffffffffffffffffffffffffffffff167fddf252ad1be2c89b69c2b068fc378daa952ba7f163c4a11628f55a4df523b3ef836040516101e79190610788565b60405180910390a3505050565b6000604051905090565b600080fd5b600080fd5b600080fd5b600080fd5b6000601f19601f8301169050919050565b7f4e487b7100000000000000000000000000000000000000000000000000000000600052604160045260246000fd5b61025b82610212565b810181811067ffffffffffffffff8211171561027a57610279610223565b5b80604052505050565b600061028d6101f4565b90506102998282610252565b919050565b600067ffffffffffffffff8211156102b9576102b8610223565b5b6102c282610212565b9050602081019050919050565b60005b838110156102ed5780820151818401526020810190506102d2565b60008484015250505050565b600061030c6103078461029e565b610283565b9050828152602081018484840111156103285761032761020d565b5b6103338482856102cf565b509392505050565b600082601f8301126103505761034f610208565b5b81516103608482602086016102f9565b91505092915050565b600080604083850312156103805761037f6101fe565b5b600083015167ffffffffffffffff81111561039e5761039d610203565b5b6103aa8582860161033b565b925050602083015167ffffffffffffffff8111156103cb576103ca610203565b5b6103d78582860161033b565b9150509250929050565b600081519050919050565b7f4e487b7100000000000000000000000000000000000000000000000000000000600052602260045260246000fd5b6000600282049050600182168061043357607f821691505b602082108103610446576104456103ec565b5b50919050565b60008190508160005260206000209050919050565b60006020601f8301049050919050565b600082821b905092915050565b6000600883026104ae7fffffffffffffffffffffffffffffffffffffffffffffffffffffffffffffffff82610471565b6104b88683610471565b95508019841693508086168417925050509392505050565b6000819050919050565b6000819050919050565b60006104ff6104fa6104f5846104d0565b6104da565b6104d0565b9050919050565b6000819050919050565b610519836104e4565b61052d61052582610506565b84845461047e565b825550505050565b600090565b610542610535565b61054d818484610510565b505050565b5b818110156105715761056660008261053a565b600181019050610553565b5050565b601f8211156105b6576105878161044c565b61059084610461565b8101602085101561059f578190505b6105b36105ab85610461565b830182610552565b50505b505050565b600082821c905092915050565b60006105d9600019846008026105bb565b1980831691505092915050565b60006105f283836105c8565b9150826002028217905092915050565b61060b826103e1565b67ffffffffffffffff81111561062457610623610223565b5b61062e825461041b565b610639828285610575565b600060209050601f83116001811461066c576000841561065a578287015190505b61066485826105e6565b8655506106cc565b601f19841661067a8661044c565b60005b828110156106a25784890151825560018201915060208501945060208101905061067d565b868310156106bf57848901516106bb601f8916826105c8565b8355505b6001600288020188555050505b505050505050565b7f4e487b7100000000000000000000000000000000000000000000000000000000600052601160045260246000fd5b600061070e826104d0565b9150610719836104d0565b9250828202610727816104d0565b9150828204841483151761073e5761073d6106d4565b5b5092915050565b6000610750826104d0565b915061075b836104d0565b9250828201905080821115610773576107726106d4565b5b92915050565b610782816104d0565b82525050565b600060208201905061079d6000830184610779565b92915050565b611083806107b26000396000f3fe608060405234801561001057600080fd5b50600436106100935760003560e01c806376809ce31161006657806376809ce31461011e578063862b092b1461013c578063a9059cbb1461015a578063c4e41b2214610176578063dd62ed3e1461019457610093565b8063095ea7b31461009857806315070401146100b457806323b872dd146100d257806370a08231146100ee575b600080fd5b6100b260048036038101906100ad9190610bd9565b6101c4565b005b6100bc61032f565b6040516100c99190610ca9565b60405180910390f35b6100ec60048036038101906100e79190610ccb565b6103c1565b005b61010860048036038101906101039190610d1e565b61078d565b6040516101159190610d5a565b60405180910390f35b6101266107d6565b6040516101339190610d91565b60405180910390f35b6101446107df565b6040516101519190610ca9565b60405180910390f35b610174600480360381019061016f9190610bd9565b610871565b005b61017e610aaf565b60405161018b9190610d5a565b60405180910390f35b6101ae60048036038101906101a99190610dac565b610ab9565b6040516101bb9190610d5a565b60405180910390f35b80600460003373ffffffffffffffffffffffffffffffffffffffff1673ffffffffffffffffffffffffffffffffffffffff1681526020019081526020016000205411610245576040517f08c379a000000000000000000000000000000000000000000000000000000000815260040161023c90610e38565b60405180910390fd5b80600560003373ffffffffffffffffffffffffffffffffffffffff1673ffffffffffffffffffffffffffffffffffffffff16815260200190815260200160002060008473ffffffffffffffffffffffffffffffffffffffff1673ffffffffffffffffffffffffffffffffffffffff168152602001908152602001600020819055508173ffffffffffffffffffffffffffffffffffffffff163373ffffffffffffffffffffffffffffffffffffffff167f8c5be1e5ebec7d5bd14f71427d1e84f3dd0314c0f7b2291e5b200ac8c7c3b925836040516103239190610d5a565b60405180910390a35050565b60606001805461033e90610e87565b80601f016020809104026020016040519081016040528092919081815260200182805461036a90610e87565b80156103b75780601f1061038c576101008083540402835291602001916103b7565b820191906000526020600020905b81548152906001019060200180831161039a57829003601f168201915b5050505050905090565b600073ffffffffffffffffffffffffffffffffffffffff168373ffffffffffffffffffffffffffffffffffffffff1603610430576040517f08c379a000000000000000000000000000000000000000000000000000000000815260040161042790610f04565b60405180910390fd5b600073ffffffffffffffffffffffffffffffffffffffff168273ffffffffffffffffffffffffffffffffffffffff160361049f576040517f08c379a000000000000000000000000000000000000000000000000000000000815260040161049690610f04565b60405180910390fd5b600460008473ffffffffffffffffffffffffffffffffffffffff1673ffffffffffffffffffffffffffffffffffffffff168152602001908152602001600020548111156104eb57600080fd5b600560008473ffffffffffffffffffffffffffffffffffffffff1673ffffffffffffffffffffffffffffffffffffffff16815260200190815260200160002060003373ffffffffffffffffffffffffffffffffffffffff1673ffffffffffffffffffffffffffffffffffffffff1681526020019081526020016000205481111561057457600080fd5b80600460008573ffffffffffffffffffffffffffffffffffffffff1673ffffffffffffffffffffffffffffffffffffffff168152602001908152602001600020546105bf9190610f53565b600460008573ffffffffffffffffffffffffffffffffffffffff1673ffffffffffffffffffffffffffffffffffffffff1681526020019081526020016000208190555080600560008573ffffffffffffffffffffffffffffffffffffffff1673ffffffffffffffffffffffffffffffffffffffff16815260200190815260200160002060003373ffffffffffffffffffffffffffffffffffffffff1673ffffffffffffffffffffffffffffffffffffffff168152602001908152602001600020600082825461068e9190610f53565b9250508190555080600460008473ffffffffffffffffffffffffffffffffffffffff1673ffffffffffffffffffffffffffffffffffffffff168152602001908152602001600020546106e09190610f87565b600460008473ffffffffffffffffffffffffffffffffffffffff1673ffffffffffffffffffffffffffffffffffffffff168152602001908152602001600020819055508173ffffffffffffffffffffffffffffffffffffffff168373ffffffffffffffffffffffffffffffffffffffff167fddf252ad1be2c89b69c2b068fc378daa952ba7f163c4a11628f55a4df523b3ef836040516107809190610d5a565b60405180910390a3505050565b6000600460008373ffffffffffffffffffffffffffffffffffffffff1673ffffffffffffffffffffffffffffffffffffffff168152602001908152602001600020549050919050565b60006012905090565b6060600080546107ee90610e87565b80601f016020809104026020016040519081016040528092919081815260200182805461081a90610e87565b80156108675780601f1061083c57610100808354040283529160200191610867565b820191906000526020600020905b81548152906001019060200180831161084a57829003601f168201915b5050505050905090565b600073ffffffffffffffffffffffffffffffffffffffff168273ffffffffffffffffffffffffffffffffffffffff16036108e0576040517f08c379a00000000000000000000000000000000000000000000000000000000081526004016108d790610f04565b60405180910390fd5b600460003373ffffffffffffffffffffffffffffffffffffffff1673ffffffffffffffffffffffffffffffffffffffff16815260200190815260200160002054811115610962576040517f08c379a00000000000000000000000000000000000000000000000000000000081526004016109599061102d565b60405180910390fd5b80600460003373ffffffffffffffffffffffffffffffffffffffff1673ffffffffffffffffffffffffffffffffffffffff16815260200190815260200160002060008282546109b19190610f53565b9250508190555080600460008473ffffffffffffffffffffffffffffffffffffffff1673ffffffffffffffffffffffffffffffffffffffff16815260200190815260200160002054610a039190610f87565b600460008473ffffffffffffffffffffffffffffffffffffffff1673ffffffffffffffffffffffffffffffffffffffff168152602001908152602001600020819055508173ffffffffffffffffffffffffffffffffffffffff163373ffffffffffffffffffffffffffffffffffffffff167fddf252ad1be2c89b69c2b068fc378daa952ba7f163c4a11628f55a4df523b3ef83604051610aa39190610d5a565b60405180910390a35050565b6000600254905090565b6000600560008473ffffffffffffffffffffffffffffffffffffffff1673ffffffffffffffffffffffffffffffffffffffff16815260200190815260200160002060008373ffffffffffffffffffffffffffffffffffffffff1673ffffffffffffffffffffffffffffffffffffffff16815260200190815260200160002054905092915050565b600080fd5b600073ffffffffffffffffffffffffffffffffffffffff82169050919050565b6000610b7082610b45565b9050919050565b610b8081610b65565b8114610b8b57600080fd5b50565b600081359050610b9d81610b77565b92915050565b6000819050919050565b610bb681610ba3565b8114610bc157600080fd5b50565b600081359050610bd381610bad565b92915050565b60008060408385031215610bf057610bef610b40565b5b6000610bfe85828601610b8e565b9250506020610c0f85828601610bc4565b9150509250929050565b600081519050919050565b600082825260208201905092915050565b60005b83811015610c53578082015181840152602081019050610c38565b60008484015250505050565b6000601f19601f8301169050919050565b6000610c7b82610c19565b610c858185610c24565b9350610c95818560208601610c35565b610c9e81610c5f565b840191505092915050565b60006020820190508181036000830152610cc38184610c70565b905092915050565b600080600060608486031215610ce457610ce3610b40565b5b6000610cf286828701610b8e565b9350506020610d0386828701610b8e565b9250506040610d1486828701610bc4565b9150509250925092565b600060208284031215610d3457610d33610b40565b5b6000610d4284828501610b8e565b91505092915050565b610d5481610ba3565b82525050565b6000602082019050610d6f6000830184610d4b565b92915050565b600060ff82169050919050565b610d8b81610d75565b82525050565b6000602082019050610da66000830184610d82565b92915050565b60008060408385031215610dc357610dc2610b40565b5b6000610dd185828601610b8e565b9250506020610de285828601610b8e565b9150509250929050565b7f42616c616e6365206973206e6f7420656e6f7567680000000000000000000000600082015250565b6000610e22601583610c24565b9150610e2d82610dec565b602082019050919050565b60006020820190508181036000830152610e5181610e15565b9050919050565b7f4e487b7100000000000000000000000000000000000000000000000000000000600052602260045260246000fd5b60006002820490506001821680610e9f57607f821691505b602082108103610eb257610eb1610e58565b5b50919050565b7f41646472657373206973206e6f7420616c6c6f77656400000000000000000000600082015250565b6000610eee601683610c24565b9150610ef982610eb8565b602082019050919050565b60006020820190508181036000830152610f1d81610ee1565b9050919050565b7f4e487b7100000000000000000000000000000000000000000000000000000000600052601160045260246000fd5b6000610f5e82610ba3565b9150610f6983610ba3565b9250828203905081811115610f8157610f80610f24565b5b92915050565b6000610f9282610ba3565b9150610f9d83610ba3565b9250828201905080821115610fb557610fb4610f24565b5b92915050565b7f596f752063616e27742074616b65206d6f7265207468616e207768617420697360008201527f206176616c6961626c6500000000000000000000000000000000000000000000602082015250565b6000611017602a83610c24565b915061102282610fbb565b604082019050919050565b600060208201905081810360008301526110468161100a565b905091905056fea264697066735822122014fd87ffa6e2b0b1297b21e0b0265749f2b952223b4da4e9fe1a440ca8b395df64736f6c634300081b0033",
  "linkReferences": {},
  "deployedLinkReferences": {}
}