{
  "_format": "hh-sol-artifact-1",
  "contractName": "ProposalVote",
  "sourceName": "contracts/ProposalVote.sol",
  "abi": [
    {
      "anonymous": false,
      "inputs": [
        {
          "indexed": false,
          "internalType": "string",
          "name": "title",
          "type": "string"
        },
        {
          "indexed": false,
          "internalType": "uint16",
          "name": "voteCount",
          "type": "uint16"
        }
      ],
      "name": "ProposalActive",
      "type": "event"
    },
    {
      "anonymous": false,
      "inputs": [
        {
          "indexed": false,
          "internalType": "string",
          "name": "title",
          "type": "string"
        },
        {
          "indexed": false,
          "internalType": "string",
          "name": "description",
          "type": "string"
        },
        {
          "indexed": false,
          "internalType": "uint16",
          "name": "voteCount",
          "type": "uint16"
        }
      ],
      "name": "ProposalApproved",
      "type": "event"
    },
    {
      "anonymous": false,
      "inputs": [
        {
          "indexed": false,
          "internalType": "string",
          "name": "title",
          "type": "string"
        },
        {
          "indexed": false,
          "internalType": "string",
          "name": "description",
          "type": "string"
        },
        {
          "indexed": false,
          "internalType": "uint16",
          "name": "quorum",
          "type": "uint16"
        }
      ],
      "name": "ProposalCreated",
      "type": "event"
    },
    {
      "inputs": [
        {
          "internalType": "string",
          "name": "_title",
          "type": "string"
        },
        {
          "internalType": "string",
          "name": "_desc",
          "type": "string"
        },
        {
          "internalType": "uint16",
          "name": "_quorum",
          "type": "uint16"
        }
      ],
      "name": "createProposal",
      "outputs": [],
      "stateMutability": "nonpayable",
      "type": "function"
    },
    {
      "inputs": [],
      "name": "getAllProposals",
      "outputs": [
        {
          "components": [
            {
              "internalType": "string",
              "name": "title",
              "type": "string"
            },
            {
              "internalType": "string",
              "name": "description",
              "type": "string"
            },
            {
              "internalType": "uint16",
              "name": "voteCount",
              "type": "uint16"
            },
            {
              "internalType": "address[]",
              "name": "voters",
              "type": "address[]"
            },
            {
              "internalType": "uint16",
              "name": "quorum",
              "type": "uint16"
            },
            {
              "internalType": "enum ProposalVote.PropsStatus",
              "name": "status",
              "type": "uint8"
            }
          ],
          "internalType": "struct ProposalVote.Proposal[]",
          "name": "",
          "type": "tuple[]"
        }
      ],
      "stateMutability": "view",
      "type": "function"
    },
    {
      "inputs": [
        {
          "internalType": "uint8",
          "name": "_index",
          "type": "uint8"
        }
      ],
      "name": "getProposal",
      "outputs": [
        {
          "internalType": "string",
          "name": "title_",
          "type": "string"
        },
        {
          "internalType": "string",
          "name": "desc_",
          "type": "string"
        },
        {
          "internalType": "uint16",
          "name": "voteCount_",
          "type": "uint16"
        },
        {
          "internalType": "address[]",
          "name": "voters_",
          "type": "address[]"
        },
        {
          "internalType": "uint16",
          "name": "quorum_",
          "type": "uint16"
        },
        {
          "internalType": "enum ProposalVote.PropsStatus",
          "name": "status_",
          "type": "uint8"
        }
      ],
      "stateMutability": "view",
      "type": "function"
    },
    {
      "inputs": [
        {
          "internalType": "uint256",
          "name": "",
          "type": "uint256"
        }
      ],
      "name": "proposals",
      "outputs": [
        {
          "internalType": "string",
          "name": "title",
          "type": "string"
        },
        {
          "internalType": "string",
          "name": "description",
          "type": "string"
        },
        {
          "internalType": "uint16",
          "name": "voteCount",
          "type": "uint16"
        },
        {
          "internalType": "uint16",
          "name": "quorum",
          "type": "uint16"
        },
        {
          "internalType": "enum ProposalVote.PropsStatus",
          "name": "status",
          "type": "uint8"
        }
      ],
      "stateMutability": "view",
      "type": "function"
    },
    {
      "inputs": [
        {
          "internalType": "uint8",
          "name": "_index",
          "type": "uint8"
        }
      ],
      "name": "voteOnProposal",
      "outputs": [],
      "stateMutability": "nonpayable",
      "type": "function"
    }
  ],
  "bytecode": "0x6080604052348015600f57600080fd5b50611ebb8061001f6000396000f3fe608060405234801561001057600080fd5b50600436106100575760003560e01c8063013cf08b1461005c5780635521e3bf14610090578063bcf2e026146100ac578063cceb68f5146100c8578063dac001fe146100e6575b600080fd5b61007660048036038101906100719190610ffd565b61011b565b60405161008795949392919061114e565b60405180910390f35b6100aa60048036038101906100a591906111e8565b61029a565b005b6100c660048036038101906100c19190611376565b6106dc565b005b6100d06108d8565b6040516100dd91906116b2565b60405180910390f35b61010060048036038101906100fb91906111e8565b610b64565b60405161011296959493929190611743565b60405180910390f35b6001818154811061012b57600080fd5b906000526020600020906005020160009150905080600001805461014e906117e8565b80601f016020809104026020016040519081016040528092919081815260200182805461017a906117e8565b80156101c75780601f1061019c576101008083540402835291602001916101c7565b820191906000526020600020905b8154815290600101906020018083116101aa57829003601f168201915b5050505050908060010180546101dc906117e8565b80601f0160208091040260200160405190810160405280929190818152602001828054610208906117e8565b80156102555780601f1061022a57610100808354040283529160200191610255565b820191906000526020600020905b81548152906001019060200180831161023857829003601f168201915b5050505050908060020160009054906101000a900461ffff16908060040160009054906101000a900461ffff16908060040160029054906101000a900460ff16905085565b600073ffffffffffffffffffffffffffffffffffffffff163373ffffffffffffffffffffffffffffffffffffffff1603610309576040517f08c379a000000000000000000000000000000000000000000000000000000000815260040161030090611865565b60405180910390fd5b6001805490508160ff1610610353576040517f08c379a000000000000000000000000000000000000000000000000000000000815260040161034a906118d1565b60405180910390fd5b6000803373ffffffffffffffffffffffffffffffffffffffff1673ffffffffffffffffffffffffffffffffffffffff16815260200190815260200160002060008260ff1660ff16815260200190815260200160002060009054906101000a900460ff16156103f6576040517f08c379a00000000000000000000000000000000000000000000000000000000081526004016103ed9061193d565b60405180910390fd5b600060018260ff168154811061040f5761040e61195d565b5b90600052602060002090600502019050600380811115610432576104316110d7565b5b8160040160029054906101000a900460ff166003811115610456576104556110d7565b5b03610496576040517f08c379a000000000000000000000000000000000000000000000000000000000815260040161048d906119d8565b60405180910390fd5b60018160020160008282829054906101000a900461ffff166104b89190611a27565b92506101000a81548161ffff021916908361ffff16021790555080600301339080600181540180825580915050600190039060005260206000200160009091909190916101000a81548173ffffffffffffffffffffffffffffffffffffffff021916908373ffffffffffffffffffffffffffffffffffffffff16021790555060016000803373ffffffffffffffffffffffffffffffffffffffff1673ffffffffffffffffffffffffffffffffffffffff16815260200190815260200160002060008460ff1660ff16815260200190815260200160002060006101000a81548160ff02191690831515021790555060028160040160026101000a81548160ff021916908360038111156105cd576105cc6110d7565b5b02179055508060040160009054906101000a900461ffff1661ffff168160020160009054906101000a900461ffff1661ffff161061068a5760038160040160026101000a81548160ff0219169083600381111561062d5761062c6110d7565b5b02179055507fa87a3affe78bbf23ff593a0bad3a56d60a80571d3c2bebd8b4253892f85aec8081600001826001018360020160009054906101000a900461ffff1660405161067d93929190611af6565b60405180910390a16106d8565b7e68f5acd04b88bca43c904950734810e6d43b1f13f00da9e450355cad273543816000018260020160009054906101000a900461ffff166040516106cf929190611b3b565b60405180910390a15b5050565b600073ffffffffffffffffffffffffffffffffffffffff163373ffffffffffffffffffffffffffffffffffffffff160361074b576040517f08c379a000000000000000000000000000000000000000000000000000000000815260040161074290611865565b60405180910390fd5b610753610ebc565b83816000018190525082816020018190525081816080019061ffff16908161ffff168152505060018160a001906003811115610792576107916110d7565b5b908160038111156107a6576107a56110d7565b5b81525050600181908060018154018082558091505060019003906000526020600020906005020160009091909190915060008201518160000190816107eb9190611d02565b5060208201518160010190816108019190611d02565b5060408201518160020160006101000a81548161ffff021916908361ffff1602179055506060820151816003019080519060200190610841929190610f0c565b5060808201518160040160006101000a81548161ffff021916908361ffff16021790555060a08201518160040160026101000a81548160ff021916908360038111156108905761088f6110d7565b5b021790555050507f4538e03d1cc9f94e716b5d437dcc024e553cb80de3e0c95c0181833897d33ebb8484846040516108ca93929190611dd4565b60405180910390a150505050565b60606001805480602002602001604051908101604052809291908181526020016000905b82821015610b5b57838290600052602060002090600502016040518060c001604052908160008201805461092f906117e8565b80601f016020809104026020016040519081016040528092919081815260200182805461095b906117e8565b80156109a85780601f1061097d576101008083540402835291602001916109a8565b820191906000526020600020905b81548152906001019060200180831161098b57829003601f168201915b505050505081526020016001820180546109c1906117e8565b80601f01602080910402602001604051908101604052809291908181526020018280546109ed906117e8565b8015610a3a5780601f10610a0f57610100808354040283529160200191610a3a565b820191906000526020600020905b815481529060010190602001808311610a1d57829003601f168201915b505050505081526020016002820160009054906101000a900461ffff1661ffff1661ffff16815260200160038201805480602002602001604051908101604052809291908181526020018280548015610ae857602002820191906000526020600020905b8160009054906101000a900473ffffffffffffffffffffffffffffffffffffffff1673ffffffffffffffffffffffffffffffffffffffff1681526020019060010190808311610a9e575b505050505081526020016004820160009054906101000a900461ffff1661ffff1661ffff1681526020016004820160029054906101000a900460ff166003811115610b3657610b356110d7565b5b6003811115610b4857610b476110d7565b5b81525050815260200190600101906108fc565b50505050905090565b60608060006060600080600073ffffffffffffffffffffffffffffffffffffffff163373ffffffffffffffffffffffffffffffffffffffff1603610bdd576040517f08c379a0000000000000000000000000000000000000000000000000000000008152600401610bd490611e65565b60405180910390fd5b6001805490508760ff1610610c27576040517f08c379a0000000000000000000000000000000000000000000000000000000008152600401610c1e906118d1565b60405180910390fd5b600060018860ff1681548110610c4057610c3f61195d565b5b90600052602060002090600502016040518060c0016040529081600082018054610c69906117e8565b80601f0160208091040260200160405190810160405280929190818152602001828054610c95906117e8565b8015610ce25780601f10610cb757610100808354040283529160200191610ce2565b820191906000526020600020905b815481529060010190602001808311610cc557829003601f168201915b50505050508152602001600182018054610cfb906117e8565b80601f0160208091040260200160405190810160405280929190818152602001828054610d27906117e8565b8015610d745780601f10610d4957610100808354040283529160200191610d74565b820191906000526020600020905b815481529060010190602001808311610d5757829003601f168201915b505050505081526020016002820160009054906101000a900461ffff1661ffff1661ffff16815260200160038201805480602002602001604051908101604052809291908181526020018280548015610e2257602002820191906000526020600020905b8160009054906101000a900473ffffffffffffffffffffffffffffffffffffffff1673ffffffffffffffffffffffffffffffffffffffff1681526020019060010190808311610dd8575b505050505081526020016004820160009054906101000a900461ffff1661ffff1661ffff1681526020016004820160029054906101000a900460ff166003811115610e7057610e6f6110d7565b5b6003811115610e8257610e816110d7565b5b81525050905080600001519650806020015195508060400151945080606001519350806080015192508060a0015191505091939550919395565b6040518060c001604052806060815260200160608152602001600061ffff16815260200160608152602001600061ffff16815260200160006003811115610f0657610f056110d7565b5b81525090565b828054828255906000526020600020908101928215610f85579160200282015b82811115610f845782518260006101000a81548173ffffffffffffffffffffffffffffffffffffffff021916908373ffffffffffffffffffffffffffffffffffffffff16021790555091602001919060010190610f2c565b5b509050610f929190610f96565b5090565b5b80821115610faf576000816000905550600101610f97565b5090565b6000604051905090565b600080fd5b600080fd5b6000819050919050565b610fda81610fc7565b8114610fe557600080fd5b50565b600081359050610ff781610fd1565b92915050565b60006020828403121561101357611012610fbd565b5b600061102184828501610fe8565b91505092915050565b600081519050919050565b600082825260208201905092915050565b60005b83811015611064578082015181840152602081019050611049565b60008484015250505050565b6000601f19601f8301169050919050565b600061108c8261102a565b6110968185611035565b93506110a6818560208601611046565b6110af81611070565b840191505092915050565b600061ffff82169050919050565b6110d1816110ba565b82525050565b7f4e487b7100000000000000000000000000000000000000000000000000000000600052602160045260246000fd5b60048110611117576111166110d7565b5b50565b600081905061112882611106565b919050565b60006111388261111a565b9050919050565b6111488161112d565b82525050565b600060a08201905081810360008301526111688188611081565b9050818103602083015261117c8187611081565b905061118b60408301866110c8565b61119860608301856110c8565b6111a5608083018461113f565b9695505050505050565b600060ff82169050919050565b6111c5816111af565b81146111d057600080fd5b50565b6000813590506111e2816111bc565b92915050565b6000602082840312156111fe576111fd610fbd565b5b600061120c848285016111d3565b91505092915050565b600080fd5b600080fd5b7f4e487b7100000000000000000000000000000000000000000000000000000000600052604160045260246000fd5b61125782611070565b810181811067ffffffffffffffff821117156112765761127561121f565b5b80604052505050565b6000611289610fb3565b9050611295828261124e565b919050565b600067ffffffffffffffff8211156112b5576112b461121f565b5b6112be82611070565b9050602081019050919050565b82818337600083830152505050565b60006112ed6112e88461129a565b61127f565b9050828152602081018484840111156113095761130861121a565b5b6113148482856112cb565b509392505050565b600082601f83011261133157611330611215565b5b81356113418482602086016112da565b91505092915050565b611353816110ba565b811461135e57600080fd5b50565b6000813590506113708161134a565b92915050565b60008060006060848603121561138f5761138e610fbd565b5b600084013567ffffffffffffffff8111156113ad576113ac610fc2565b5b6113b98682870161131c565b935050602084013567ffffffffffffffff8111156113da576113d9610fc2565b5b6113e68682870161131c565b92505060406113f786828701611361565b9150509250925092565b600081519050919050565b600082825260208201905092915050565b6000819050602082019050919050565b600082825260208201905092915050565b60006114498261102a565b611453818561142d565b9350611463818560208601611046565b61146c81611070565b840191505092915050565b611480816110ba565b82525050565b600081519050919050565b600082825260208201905092915050565b6000819050602082019050919050565b600073ffffffffffffffffffffffffffffffffffffffff82169050919050565b60006114dd826114b2565b9050919050565b6114ed816114d2565b82525050565b60006114ff83836114e4565b60208301905092915050565b6000602082019050919050565b600061152382611486565b61152d8185611491565b9350611538836114a2565b8060005b8381101561156957815161155088826114f3565b975061155b8361150b565b92505060018101905061153c565b5085935050505092915050565b61157f8161112d565b82525050565b600060c08301600083015184820360008601526115a2828261143e565b915050602083015184820360208601526115bc828261143e565b91505060408301516115d16040860182611477565b50606083015184820360608601526115e98282611518565b91505060808301516115fe6080860182611477565b5060a083015161161160a0860182611576565b508091505092915050565b60006116288383611585565b905092915050565b6000602082019050919050565b600061164882611401565b611652818561140c565b9350836020820285016116648561141d565b8060005b858110156116a05784840389528151611681858261161c565b945061168c83611630565b925060208a01995050600181019050611668565b50829750879550505050505092915050565b600060208201905081810360008301526116cc818461163d565b905092915050565b600082825260208201905092915050565b60006116f082611486565b6116fa81856116d4565b9350611705836114a2565b8060005b8381101561173657815161171d88826114f3565b97506117288361150b565b925050600181019050611709565b5085935050505092915050565b600060c082019050818103600083015261175d8189611081565b905081810360208301526117718188611081565b905061178060408301876110c8565b818103606083015261179281866116e5565b90506117a160808301856110c8565b6117ae60a083018461113f565b979650505050505050565b7f4e487b7100000000000000000000000000000000000000000000000000000000600052602260045260246000fd5b6000600282049050600182168061180057607f821691505b602082108103611813576118126117b9565b5b50919050565b7f5a65726f2061646472657373206973206e6f7420616c6c6f7765640000000000600082015250565b600061184f601b83611035565b915061185a82611819565b602082019050919050565b6000602082019050818103600083015261187e81611842565b9050919050565b7f4f7574206f6620626f756e642100000000000000000000000000000000000000600082015250565b60006118bb600d83611035565b91506118c682611885565b602082019050919050565b600060208201905081810360008301526118ea816118ae565b9050919050565b7f596f7527766520766f74656420616c7265616479000000000000000000000000600082015250565b6000611927601483611035565b9150611932826118f1565b602082019050919050565b600060208201905081810360008301526119568161191a565b9050919050565b7f4e487b7100000000000000000000000000000000000000000000000000000000600052603260045260246000fd5b7f546869732070726f706f73616c20686173206265656e20616363657074656400600082015250565b60006119c2601f83611035565b91506119cd8261198c565b602082019050919050565b600060208201905081810360008301526119f1816119b5565b9050919050565b7f4e487b7100000000000000000000000000000000000000000000000000000000600052601160045260246000fd5b6000611a32826110ba565b9150611a3d836110ba565b9250828201905061ffff811115611a5757611a566119f8565b5b92915050565b60008190508160005260206000209050919050565b60008154611a7f816117e8565b611a898186611035565b94506001821660008114611aa45760018114611aba57611aed565b60ff198316865281151560200286019350611aed565b611ac385611a5d565b60005b83811015611ae557815481890152600182019150602081019050611ac6565b808801955050505b50505092915050565b60006060820190508181036000830152611b108186611a72565b90508181036020830152611b248185611a72565b9050611b3360408301846110c8565b949350505050565b60006040820190508181036000830152611b558185611a72565b9050611b6460208301846110c8565b9392505050565b60006020601f8301049050919050565b600082821b905092915050565b600060088302611bb87fffffffffffffffffffffffffffffffffffffffffffffffffffffffffffffffff82611b7b565b611bc28683611b7b565b95508019841693508086168417925050509392505050565b6000819050919050565b6000611bff611bfa611bf584610fc7565b611bda565b610fc7565b9050919050565b6000819050919050565b611c1983611be4565b611c2d611c2582611c06565b848454611b88565b825550505050565b600090565b611c42611c35565b611c4d818484611c10565b505050565b5b81811015611c7157611c66600082611c3a565b600181019050611c53565b5050565b601f821115611cb657611c8781611a5d565b611c9084611b6b565b81016020851015611c9f578190505b611cb3611cab85611b6b565b830182611c52565b50505b505050565b600082821c905092915050565b6000611cd960001984600802611cbb565b1980831691505092915050565b6000611cf28383611cc8565b9150826002028217905092915050565b611d0b8261102a565b67ffffffffffffffff811115611d2457611d2361121f565b5b611d2e82546117e8565b611d39828285611c75565b600060209050601f831160018114611d6c5760008415611d5a578287015190505b611d648582611ce6565b865550611dcc565b601f198416611d7a86611a5d565b60005b82811015611da257848901518255600182019150602085019450602081019050611d7d565b86831015611dbf5784890151611dbb601f891682611cc8565b8355505b6001600288020188555050505b505050505050565b60006060820190508181036000830152611dee8186611081565b90508181036020830152611e028185611081565b9050611e1160408301846110c8565b949350505050565b7f5a65726f2061646472657373206e6f7420616c6c6f7765642100000000000000600082015250565b6000611e4f601983611035565b9150611e5a82611e19565b602082019050919050565b60006020820190508181036000830152611e7e81611e42565b905091905056fea2646970667358221220baed4f1b51e54e729169540314f4918f5c9099a3cefb597361b04bfc9aaa966d64736f6c634300081b0033",
  "linkReferences": {},
  "deployedLinkReferences": {}
}