{
  "_format": "hh-sol-artifact-1",
  "contractName": "TodoList",
  "sourceName": "contracts/TodoList.sol",
  "abi": [
    {
      "inputs": [],
      "stateMutability": "nonpayable",
      "type": "constructor"
    },
    {
      "anonymous": false,
      "inputs": [
        {
          "indexed": false,
          "internalType": "string",
          "name": "title",
          "type": "string"
        },
        {
          "indexed": false,
          "internalType": "enum TodoList.Status",
          "name": "status",
          "type": "uint8"
        }
      ],
      "name": "TodoCreated",
      "type": "event"
    },
    {
      "anonymous": false,
      "inputs": [
        {
          "indexed": false,
          "internalType": "string",
          "name": "title",
          "type": "string"
        },
        {
          "indexed": false,
          "internalType": "enum TodoList.Status",
          "name": "status",
          "type": "uint8"
        }
      ],
      "name": "TodoUpdated",
      "type": "event"
    },
    {
      "inputs": [
        {
          "internalType": "string",
          "name": "_title",
          "type": "string"
        },
        {
          "internalType": "string",
          "name": "_desc",
          "type": "string"
        }
      ],
      "name": "createTodo",
      "outputs": [
        {
          "internalType": "bool",
          "name": "",
          "type": "bool"
        }
      ],
      "stateMutability": "nonpayable",
      "type": "function"
    },
    {
      "inputs": [
        {
          "internalType": "uint16",
          "name": "_index",
          "type": "uint16"
        }
      ],
      "name": "deleteTodo",
      "outputs": [],
      "stateMutability": "nonpayable",
      "type": "function"
    },
    {
      "inputs": [],
      "name": "getAllTodo",
      "outputs": [
        {
          "components": [
            {
              "internalType": "string",
              "name": "title",
              "type": "string"
            },
            {
              "internalType": "string",
              "name": "description",
              "type": "string"
            },
            {
              "internalType": "enum TodoList.Status",
              "name": "status",
              "type": "uint8"
            }
          ],
          "internalType": "struct TodoList.Todo[]",
          "name": "",
          "type": "tuple[]"
        }
      ],
      "stateMutability": "view",
      "type": "function"
    },
    {
      "inputs": [
        {
          "internalType": "uint16",
          "name": "_index",
          "type": "uint16"
        }
      ],
      "name": "getTodo",
      "outputs": [
        {
          "internalType": "string",
          "name": "",
          "type": "string"
        },
        {
          "internalType": "string",
          "name": "",
          "type": "string"
        },
        {
          "internalType": "enum TodoList.Status",
          "name": "",
          "type": "uint8"
        }
      ],
      "stateMutability": "view",
      "type": "function"
    },
    {
      "inputs": [],
      "name": "owner",
      "outputs": [
        {
          "internalType": "address",
          "name": "",
          "type": "address"
        }
      ],
      "stateMutability": "view",
      "type": "function"
    },
    {
      "inputs": [
        {
          "internalType": "uint16",
          "name": "_index",
          "type": "uint16"
        }
      ],
      "name": "todoComplete",
      "outputs": [
        {
          "internalType": "bool",
          "name": "",
          "type": "bool"
        }
      ],
      "stateMutability": "nonpayable",
      "type": "function"
    },
    {
      "inputs": [
        {
          "internalType": "uint256",
          "name": "",
          "type": "uint256"
        }
      ],
      "name": "todos",
      "outputs": [
        {
          "internalType": "string",
          "name": "title",
          "type": "string"
        },
        {
          "internalType": "string",
          "name": "description",
          "type": "string"
        },
        {
          "internalType": "enum TodoList.Status",
          "name": "status",
          "type": "uint8"
        }
      ],
      "stateMutability": "view",
      "type": "function"
    },
    {
      "inputs": [
        {
          "internalType": "uint8",
          "name": "_index",
          "type": "uint8"
        },
        {
          "internalType": "string",
          "name": "_title",
          "type": "string"
        },
        {
          "internalType": "string",
          "name": "_desc",
          "type": "string"
        }
      ],
      "name": "updateTodo",
      "outputs": [
        {
          "internalType": "bool",
          "name": "",
          "type": "bool"
        }
      ],
      "stateMutability": "nonpayable",
      "type": "function"
    }
  ],
  "bytecode": "0x6080604052348015600f57600080fd5b50336000806101000a81548173ffffffffffffffffffffffffffffffffffffffff021916908373ffffffffffffffffffffffffffffffffffffffff160217905550611c7f8061005f6000396000f3fe608060405234801561001057600080fd5b50600436106100885760003560e01c8063982abb891161005b578063982abb8914610129578063b12080fa14610147578063bc8bc2b414610177578063e9505164146101a957610088565b806316b0fac81461008d5780633380b99f146100a95780633c734648146100d95780638da5cb5b1461010b575b600080fd5b6100a760048036038101906100a29190610fc5565b6101d9565b005b6100c360048036038101906100be9190611138565b610347565b6040516100d091906111cb565b60405180910390f35b6100f360048036038101906100ee9190610fc5565b610561565b604051610102939291906112dc565b60405180910390f35b610113610789565b6040516101209190611362565b60405180910390f35b6101316107ad565b60405161013e91906114ef565b60405180910390f35b610161600480360381019061015c9190610fc5565b6109da565b60405161016e91906111cb565b60405180910390f35b610191600480360381019061018c9190611547565b610b86565b6040516101a0939291906112dc565b60405180910390f35b6101c360048036038101906101be91906115ad565b610cdd565b6040516101d091906111cb565b60405180910390f35b6001805490508161ffff1610610224576040517f08c379a000000000000000000000000000000000000000000000000000000000815260040161021b90611684565b60405180910390fd5b600180808054905061023691906116d3565b8154811061024757610246611707565b5b906000526020600020906003020160018261ffff168154811061026d5761026c611707565b5b90600052602060002090600302016000820181600001908161028f9190611958565b50600182018160010190816102a49190611958565b506002820160009054906101000a900460ff168160020160006101000a81548160ff021916908360038111156102dd576102dc611265565b5b021790555090505060018054806102f7576102f6611a40565b5b60019003818190600052602060002090600302016000808201600061031c9190610ee7565b60018201600061032c9190610ee7565b6002820160006101000a81549060ff02191690555050905550565b60008060009054906101000a900473ffffffffffffffffffffffffffffffffffffffff1673ffffffffffffffffffffffffffffffffffffffff163373ffffffffffffffffffffffffffffffffffffffff16146103d8576040517f08c379a00000000000000000000000000000000000000000000000000000000081526004016103cf90611abb565b60405180910390fd5b600073ffffffffffffffffffffffffffffffffffffffff163373ffffffffffffffffffffffffffffffffffffffff1603610447576040517f08c379a000000000000000000000000000000000000000000000000000000000815260040161043e90611b27565b60405180910390fd5b61044f610f27565b83816000018190525082816020018190525060018160400190600381111561047a57610479611265565b5b9081600381111561048e5761048d611265565b5b81525050600181908060018154018082558091505060019003906000526020600020906003020160009091909190915060008201518160000190816104d39190611b47565b5060208201518160010190816104e99190611b47565b5060408201518160020160006101000a81548160ff0219169083600381111561051557610514611265565b5b021790555050507fb24501745f85fff88cc582df1223bf671a1234ab872711ffaa7eb8bd56fe311e84600160405161054e929190611c19565b60405180910390a1600191505092915050565b60608060008073ffffffffffffffffffffffffffffffffffffffff163373ffffffffffffffffffffffffffffffffffffffff16036105d4576040517f08c379a00000000000000000000000000000000000000000000000000000000081526004016105cb90611b27565b60405180910390fd5b6001805490508461ffff161061061f576040517f08c379a000000000000000000000000000000000000000000000000000000000815260040161061690611684565b60405180910390fd5b600060018561ffff168154811061063957610638611707565b5b9060005260206000209060030201905080600001816001018260020160009054906101000a900460ff1682805461066f90611765565b80601f016020809104026020016040519081016040528092919081815260200182805461069b90611765565b80156106e85780601f106106bd576101008083540402835291602001916106e8565b820191906000526020600020905b8154815290600101906020018083116106cb57829003601f168201915b505050505092508180546106fb90611765565b80601f016020809104026020016040519081016040528092919081815260200182805461072790611765565b80156107745780601f1061074957610100808354040283529160200191610774565b820191906000526020600020905b81548152906001019060200180831161075757829003601f168201915b50505050509150935093509350509193909250565b60008054906101000a900473ffffffffffffffffffffffffffffffffffffffff1681565b6060600073ffffffffffffffffffffffffffffffffffffffff163373ffffffffffffffffffffffffffffffffffffffff160361081e576040517f08c379a000000000000000000000000000000000000000000000000000000000815260040161081590611b27565b60405180910390fd5b6001805480602002602001604051908101604052809291908181526020016000905b828210156109d1578382906000526020600020906003020160405180606001604052908160008201805461087390611765565b80601f016020809104026020016040519081016040528092919081815260200182805461089f90611765565b80156108ec5780601f106108c1576101008083540402835291602001916108ec565b820191906000526020600020905b8154815290600101906020018083116108cf57829003601f168201915b5050505050815260200160018201805461090590611765565b80601f016020809104026020016040519081016040528092919081815260200182805461093190611765565b801561097e5780601f106109535761010080835404028352916020019161097e565b820191906000526020600020905b81548152906001019060200180831161096157829003601f168201915b505050505081526020016002820160009054906101000a900460ff1660038111156109ac576109ab611265565b5b60038111156109be576109bd611265565b5b8152505081526020019060010190610840565b50505050905090565b60008060009054906101000a900473ffffffffffffffffffffffffffffffffffffffff1673ffffffffffffffffffffffffffffffffffffffff163373ffffffffffffffffffffffffffffffffffffffff1614610a6b576040517f08c379a0000000000000000000000000000000000000000000000000000000008152600401610a6290611abb565b60405180910390fd5b600073ffffffffffffffffffffffffffffffffffffffff163373ffffffffffffffffffffffffffffffffffffffff1603610ada576040517f08c379a0000000000000000000000000000000000000000000000000000000008152600401610ad190611b27565b60405180910390fd5b6001805490508261ffff1610610b25576040517f08c379a0000000000000000000000000000000000000000000000000000000008152600401610b1c90611684565b60405180910390fd5b600060018361ffff1681548110610b3f57610b3e611707565b5b9060005260206000209060030201905060038160020160006101000a81548160ff02191690836003811115610b7757610b76611265565b5b02179055506001915050919050565b60018181548110610b9657600080fd5b9060005260206000209060030201600091509050806000018054610bb990611765565b80601f0160208091040260200160405190810160405280929190818152602001828054610be590611765565b8015610c325780601f10610c0757610100808354040283529160200191610c32565b820191906000526020600020905b815481529060010190602001808311610c1557829003601f168201915b505050505090806001018054610c4790611765565b80601f0160208091040260200160405190810160405280929190818152602001828054610c7390611765565b8015610cc05780601f10610c9557610100808354040283529160200191610cc0565b820191906000526020600020905b815481529060010190602001808311610ca357829003601f168201915b5050505050908060020160009054906101000a900460ff16905083565b60008060009054906101000a900473ffffffffffffffffffffffffffffffffffffffff1673ffffffffffffffffffffffffffffffffffffffff163373ffffffffffffffffffffffffffffffffffffffff1614610d6e576040517f08c379a0000000000000000000000000000000000000000000000000000000008152600401610d6590611abb565b60405180910390fd5b600073ffffffffffffffffffffffffffffffffffffffff163373ffffffffffffffffffffffffffffffffffffffff1603610ddd576040517f08c379a0000000000000000000000000000000000000000000000000000000008152600401610dd490611b27565b60405180910390fd5b6001805490508460ff1610610e27576040517f08c379a0000000000000000000000000000000000000000000000000000000008152600401610e1e90611684565b60405180910390fd5b600060018560ff1681548110610e4057610e3f611707565b5b9060005260206000209060030201905083816000019081610e619190611b47565b5082816001019081610e739190611b47565b5060028160020160006101000a81548160ff02191690836003811115610e9c57610e9b611265565b5b02179055507fb24501745f85fff88cc582df1223bf671a1234ab872711ffaa7eb8bd56fe311e846002604051610ed3929190611c19565b60405180910390a160019150509392505050565b508054610ef390611765565b6000825580601f10610f055750610f24565b601f016020900490600052602060002090810190610f239190610f5a565b5b50565b6040518060600160405280606081526020016060815260200160006003811115610f5457610f53611265565b5b81525090565b5b80821115610f73576000816000905550600101610f5b565b5090565b6000604051905090565b600080fd5b600080fd5b600061ffff82169050919050565b610fa281610f8b565b8114610fad57600080fd5b50565b600081359050610fbf81610f99565b92915050565b600060208284031215610fdb57610fda610f81565b5b6000610fe984828501610fb0565b91505092915050565b600080fd5b600080fd5b6000601f19601f8301169050919050565b7f4e487b7100000000000000000000000000000000000000000000000000000000600052604160045260246000fd5b61104582610ffc565b810181811067ffffffffffffffff821117156110645761106361100d565b5b80604052505050565b6000611077610f77565b9050611083828261103c565b919050565b600067ffffffffffffffff8211156110a3576110a261100d565b5b6110ac82610ffc565b9050602081019050919050565b82818337600083830152505050565b60006110db6110d684611088565b61106d565b9050828152602081018484840111156110f7576110f6610ff7565b5b6111028482856110b9565b509392505050565b600082601f83011261111f5761111e610ff2565b5b813561112f8482602086016110c8565b91505092915050565b6000806040838503121561114f5761114e610f81565b5b600083013567ffffffffffffffff81111561116d5761116c610f86565b5b6111798582860161110a565b925050602083013567ffffffffffffffff81111561119a57611199610f86565b5b6111a68582860161110a565b9150509250929050565b60008115159050919050565b6111c5816111b0565b82525050565b60006020820190506111e060008301846111bc565b92915050565b600081519050919050565b600082825260208201905092915050565b60005b83811015611220578082015181840152602081019050611205565b60008484015250505050565b6000611237826111e6565b61124181856111f1565b9350611251818560208601611202565b61125a81610ffc565b840191505092915050565b7f4e487b7100000000000000000000000000000000000000000000000000000000600052602160045260246000fd5b600481106112a5576112a4611265565b5b50565b60008190506112b682611294565b919050565b60006112c6826112a8565b9050919050565b6112d6816112bb565b82525050565b600060608201905081810360008301526112f6818661122c565b9050818103602083015261130a818561122c565b905061131960408301846112cd565b949350505050565b600073ffffffffffffffffffffffffffffffffffffffff82169050919050565b600061134c82611321565b9050919050565b61135c81611341565b82525050565b60006020820190506113776000830184611353565b92915050565b600081519050919050565b600082825260208201905092915050565b6000819050602082019050919050565b600082825260208201905092915050565b60006113c5826111e6565b6113cf81856113a9565b93506113df818560208601611202565b6113e881610ffc565b840191505092915050565b6113fc816112bb565b82525050565b6000606083016000830151848203600086015261141f82826113ba565b9150506020830151848203602086015261143982826113ba565b915050604083015161144e60408601826113f3565b508091505092915050565b60006114658383611402565b905092915050565b6000602082019050919050565b60006114858261137d565b61148f8185611388565b9350836020820285016114a185611399565b8060005b858110156114dd57848403895281516114be8582611459565b94506114c98361146d565b925060208a019950506001810190506114a5565b50829750879550505050505092915050565b60006020820190508181036000830152611509818461147a565b905092915050565b6000819050919050565b61152481611511565b811461152f57600080fd5b50565b6000813590506115418161151b565b92915050565b60006020828403121561155d5761155c610f81565b5b600061156b84828501611532565b91505092915050565b600060ff82169050919050565b61158a81611574565b811461159557600080fd5b50565b6000813590506115a781611581565b92915050565b6000806000606084860312156115c6576115c5610f81565b5b60006115d486828701611598565b935050602084013567ffffffffffffffff8111156115f5576115f4610f86565b5b6116018682870161110a565b925050604084013567ffffffffffffffff81111561162257611621610f86565b5b61162e8682870161110a565b9150509250925092565b7f4f7574206f6620626f756e640000000000000000000000000000000000000000600082015250565b600061166e600c836111f1565b915061167982611638565b602082019050919050565b6000602082019050818103600083015261169d81611661565b9050919050565b7f4e487b7100000000000000000000000000000000000000000000000000000000600052601160045260246000fd5b60006116de82611511565b91506116e983611511565b9250828203905081811115611701576117006116a4565b5b92915050565b7f4e487b7100000000000000000000000000000000000000000000000000000000600052603260045260246000fd5b7f4e487b7100000000000000000000000000000000000000000000000000000000600052602260045260246000fd5b6000600282049050600182168061177d57607f821691505b6020821081036117905761178f611736565b5b50919050565b6000815490506117a581611765565b9050919050565b60008190508160005260206000209050919050565b60006020601f8301049050919050565b600082821b905092915050565b60006008830261180e7fffffffffffffffffffffffffffffffffffffffffffffffffffffffffffffffff826117d1565b61181886836117d1565b95508019841693508086168417925050509392505050565b6000819050919050565b600061185561185061184b84611511565b611830565b611511565b9050919050565b6000819050919050565b61186f8361183a565b61188361187b8261185c565b8484546117de565b825550505050565b600090565b61189861188b565b6118a3818484611866565b505050565b5b818110156118c7576118bc600082611890565b6001810190506118a9565b5050565b601f82111561190c576118dd816117ac565b6118e6846117c1565b810160208510156118f5578190505b611909611901856117c1565b8301826118a8565b50505b505050565b600082821c905092915050565b600061192f60001984600802611911565b1980831691505092915050565b6000611948838361191e565b9150826002028217905092915050565b818103611966575050611a3e565b61196f82611796565b67ffffffffffffffff8111156119885761198761100d565b5b6119928254611765565b61199d8282856118cb565b6000601f8311600181146119cc57600084156119ba578287015490505b6119c4858261193c565b865550611a37565b601f1984166119da876117ac565b96506119e5866117ac565b60005b82811015611a0d578489015482556001820191506001850194506020810190506119e8565b86831015611a2a5784890154611a26601f89168261191e565b8355505b6001600288020188555050505b5050505050505b565b7f4e487b7100000000000000000000000000000000000000000000000000000000600052603160045260246000fd5b7f596f75277265206e6f7420616c6c6f7765640000000000000000000000000000600082015250565b6000611aa56012836111f1565b9150611ab082611a6f565b602082019050919050565b60006020820190508181036000830152611ad481611a98565b9050919050565b7f5a65726f2041646472657373206e6f7420616c6c6f7765640000000000000000600082015250565b6000611b116018836111f1565b9150611b1c82611adb565b602082019050919050565b60006020820190508181036000830152611b4081611b04565b9050919050565b611b50826111e6565b67ffffffffffffffff811115611b6957611b6861100d565b5b611b738254611765565b611b7e8282856118cb565b600060209050601f831160018114611bb15760008415611b9f578287015190505b611ba9858261193c565b865550611c11565b601f198416611bbf866117ac565b60005b82811015611be757848901518255600182019150602085019450602081019050611bc2565b86831015611c045784890151611c00601f89168261191e565b8355505b6001600288020188555050505b505050505050565b60006040820190508181036000830152611c33818561122c565b9050611c4260208301846112cd565b939250505056fea264697066735822122034a922542507f656706f7f12b4e567501ddd1a0192c3c9ea0de1906675e210e664736f6c634300081b0033",
  "linkReferences": {},
  "deployedLinkReferences": {}
}